{
	"FundMe/FundMe_flattened.sol": {
		"PriceConverter": {
			"abi": [
				{
					"inputs": [
						{
							"internalType": "uint256",
							"name": "ethAmount",
							"type": "uint256"
						}
					],
					"name": "getConversionRate",
					"outputs": [
						{
							"internalType": "uint256",
							"name": "",
							"type": "uint256"
						}
					],
					"stateMutability": "view",
					"type": "function"
				},
				{
					"inputs": [],
					"name": "getPrice",
					"outputs": [
						{
							"internalType": "uint256",
							"name": "",
							"type": "uint256"
						}
					],
					"stateMutability": "view",
					"type": "function"
				},
				{
					"inputs": [],
					"name": "getPriceInUsd",
					"outputs": [
						{
							"internalType": "uint256",
							"name": "",
							"type": "uint256"
						}
					],
					"stateMutability": "view",
					"type": "function"
				},
				{
					"inputs": [],
					"name": "getVersion",
					"outputs": [
						{
							"internalType": "uint256",
							"name": "",
							"type": "uint256"
						}
					],
					"stateMutability": "view",
					"type": "function"
				}
			],
			"devdoc": {
				"kind": "dev",
				"methods": {},
				"version": 1
			},
			"evm": {
				"assembly": "    /* \"FundMe/FundMe_flattened.sol\":813:1720  library PriceConverter {... */\n  dataSize(sub_0)\n  dataOffset(sub_0)\n  0x0b\n  dup3\n  dup3\n  dup3\n  codecopy\n  dup1\n  mload\n  0x00\n  byte\n  0x73\n  eq\n  tag_1\n  jumpi\n  mstore(0x00, 0x4e487b7100000000000000000000000000000000000000000000000000000000)\n  mstore(0x04, 0x00)\n  revert(0x00, 0x24)\ntag_1:\n  mstore(0x00, address)\n  0x73\n  dup2\n  mstore8\n  dup3\n  dup2\n  return\nstop\n\nsub_0: assembly {\n        /* \"FundMe/FundMe_flattened.sol\":813:1720  library PriceConverter {... */\n      eq(address, deployTimeAddress())\n      mstore(0x40, 0x80)\n      jumpi(tag_1, lt(calldatasize, 0x04))\n      shr(0xe0, calldataload(0x00))\n      dup1\n      0x0d8e6e2c\n      eq\n      tag_2\n      jumpi\n      dup1\n      0x6e5b6b28\n      eq\n      tag_3\n      jumpi\n      dup1\n      0x838a6059\n      eq\n      tag_4\n      jumpi\n      dup1\n      0x98d5fdca\n      eq\n      tag_5\n      jumpi\n    tag_1:\n      0x00\n      dup1\n      revert\n        /* \"FundMe/FundMe_flattened.sol\":1386:1566  function getVersion() public view returns (uint256) {... */\n    tag_2:\n      tag_6\n      tag_7\n      jump\t// in\n    tag_6:\n      mload(0x40)\n      tag_8\n      swap2\n      swap1\n      tag_9\n      jump\t// in\n    tag_8:\n      mload(0x40)\n      dup1\n      swap2\n      sub\n      swap1\n      return\n        /* \"FundMe/FundMe_flattened.sol\":1135:1380  function getConversionRate(uint256 ethAmount)... */\n    tag_3:\n      tag_10\n      0x04\n      dup1\n      calldatasize\n      sub\n      dup2\n      add\n      swap1\n      tag_11\n      swap2\n      swap1\n      tag_12\n      jump\t// in\n    tag_11:\n      tag_13\n      jump\t// in\n    tag_10:\n      mload(0x40)\n      tag_14\n      swap2\n      swap1\n      tag_9\n      jump\t// in\n    tag_14:\n      mload(0x40)\n      dup1\n      swap2\n      sub\n      swap1\n      return\n        /* \"FundMe/FundMe_flattened.sol\":1572:1718  function getPriceInUsd() public view returns (uint256) {... */\n    tag_4:\n      tag_15\n      tag_16\n      jump\t// in\n    tag_15:\n      mload(0x40)\n      tag_17\n      swap2\n      swap1\n      tag_9\n      jump\t// in\n    tag_17:\n      mload(0x40)\n      dup1\n      swap2\n      sub\n      swap1\n      return\n        /* \"FundMe/FundMe_flattened.sol\":839:1129  function getPrice() public view returns (uint256) {... */\n    tag_5:\n      tag_18\n      tag_19\n      jump\t// in\n    tag_18:\n      mload(0x40)\n      tag_20\n      swap2\n      swap1\n      tag_9\n      jump\t// in\n    tag_20:\n      mload(0x40)\n      dup1\n      swap2\n      sub\n      swap1\n      return\n        /* \"FundMe/FundMe_flattened.sol\":1386:1566  function getVersion() public view returns (uint256) {... */\n    tag_7:\n        /* \"FundMe/FundMe_flattened.sol\":1429:1436  uint256 */\n      0x00\n        /* \"FundMe/FundMe_flattened.sol\":1489:1531  0xD4a33860578De61DBAbDc8BFdb98FD742fA7028e */\n      0xd4a33860578de61dbabdc8bfdb98fd742fa7028e\n        /* \"FundMe/FundMe_flattened.sol\":1467:1557  AggregatorV3Interface(0xD4a33860578De61DBAbDc8BFdb98FD742fA7028e)... */\n      0xffffffffffffffffffffffffffffffffffffffff\n      and\n      0x54fd4d50\n        /* \"FundMe/FundMe_flattened.sol\":1467:1559  AggregatorV3Interface(0xD4a33860578De61DBAbDc8BFdb98FD742fA7028e)... */\n      mload(0x40)\n      dup2\n      0xffffffff\n      and\n      0xe0\n      shl\n      dup2\n      mstore\n      0x04\n      add\n      0x20\n      mload(0x40)\n      dup1\n      dup4\n      sub\n      dup2\n      dup7\n      gas\n      staticcall\n      iszero\n      dup1\n      iszero\n      tag_23\n      jumpi\n      returndatasize\n      0x00\n      dup1\n      returndatacopy\n      revert(0x00, returndatasize)\n    tag_23:\n      pop\n      pop\n      pop\n      pop\n      mload(0x40)\n      returndatasize\n      not(0x1f)\n      0x1f\n      dup3\n      add\n      and\n      dup3\n      add\n      dup1\n      0x40\n      mstore\n      pop\n      dup2\n      add\n      swap1\n      tag_24\n      swap2\n      swap1\n      tag_25\n      jump\t// in\n    tag_24:\n        /* \"FundMe/FundMe_flattened.sol\":1448:1559  return... */\n      swap1\n      pop\n        /* \"FundMe/FundMe_flattened.sol\":1386:1566  function getVersion() public view returns (uint256) {... */\n      swap1\n      jump\t// out\n        /* \"FundMe/FundMe_flattened.sol\":1135:1380  function getConversionRate(uint256 ethAmount)... */\n    tag_13:\n        /* \"FundMe/FundMe_flattened.sol\":1226:1233  uint256 */\n      0x00\n        /* \"FundMe/FundMe_flattened.sol\":1249:1265  uint256 ethPrice */\n      dup1\n        /* \"FundMe/FundMe_flattened.sol\":1268:1278  getPrice() */\n      tag_27\n        /* \"FundMe/FundMe_flattened.sol\":1268:1276  getPrice */\n      tag_19\n        /* \"FundMe/FundMe_flattened.sol\":1268:1278  getPrice() */\n      jump\t// in\n    tag_27:\n        /* \"FundMe/FundMe_flattened.sol\":1249:1278  uint256 ethPrice = getPrice() */\n      swap1\n      pop\n        /* \"FundMe/FundMe_flattened.sol\":1288:1310  uint256 ethAmountInUsd */\n      0x00\n        /* \"FundMe/FundMe_flattened.sol\":1338:1342  1e18 */\n      0x0de0b6b3a7640000\n        /* \"FundMe/FundMe_flattened.sol\":1325:1334  ethAmount */\n      dup5\n        /* \"FundMe/FundMe_flattened.sol\":1314:1322  ethPrice */\n      dup4\n        /* \"FundMe/FundMe_flattened.sol\":1314:1334  ethPrice * ethAmount */\n      tag_28\n      swap2\n      swap1\n      tag_29\n      jump\t// in\n    tag_28:\n        /* \"FundMe/FundMe_flattened.sol\":1313:1342  (ethPrice * ethAmount) / 1e18 */\n      tag_30\n      swap2\n      swap1\n      tag_31\n      jump\t// in\n    tag_30:\n        /* \"FundMe/FundMe_flattened.sol\":1288:1342  uint256 ethAmountInUsd = (ethPrice * ethAmount) / 1e18 */\n      swap1\n      pop\n        /* \"FundMe/FundMe_flattened.sol\":1359:1373  ethAmountInUsd */\n      dup1\n        /* \"FundMe/FundMe_flattened.sol\":1352:1373  return ethAmountInUsd */\n      swap3\n      pop\n      pop\n      pop\n        /* \"FundMe/FundMe_flattened.sol\":1135:1380  function getConversionRate(uint256 ethAmount)... */\n      swap2\n      swap1\n      pop\n      jump\t// out\n        /* \"FundMe/FundMe_flattened.sol\":1572:1718  function getPriceInUsd() public view returns (uint256) {... */\n    tag_16:\n        /* \"FundMe/FundMe_flattened.sol\":1618:1625  uint256 */\n      0x00\n        /* \"FundMe/FundMe_flattened.sol\":1637:1658  uint256 ethPriceInUsd */\n      dup1\n        /* \"FundMe/FundMe_flattened.sol\":1661:1681  getConversionRate(1) */\n      tag_33\n        /* \"FundMe/FundMe_flattened.sol\":1679:1680  1 */\n      0x01\n        /* \"FundMe/FundMe_flattened.sol\":1661:1678  getConversionRate */\n      tag_13\n        /* \"FundMe/FundMe_flattened.sol\":1661:1681  getConversionRate(1) */\n      jump\t// in\n    tag_33:\n        /* \"FundMe/FundMe_flattened.sol\":1637:1681  uint256 ethPriceInUsd = getConversionRate(1) */\n      swap1\n      pop\n        /* \"FundMe/FundMe_flattened.sol\":1698:1711  ethPriceInUsd */\n      dup1\n        /* \"FundMe/FundMe_flattened.sol\":1691:1711  return ethPriceInUsd */\n      swap2\n      pop\n      pop\n        /* \"FundMe/FundMe_flattened.sol\":1572:1718  function getPriceInUsd() public view returns (uint256) {... */\n      swap1\n      jump\t// out\n        /* \"FundMe/FundMe_flattened.sol\":839:1129  function getPrice() public view returns (uint256) {... */\n    tag_19:\n        /* \"FundMe/FundMe_flattened.sol\":880:887  uint256 */\n      0x00\n        /* \"FundMe/FundMe_flattened.sol\":899:930  AggregatorV3Interface priceFeed */\n      dup1\n        /* \"FundMe/FundMe_flattened.sol\":968:1010  0xD4a33860578De61DBAbDc8BFdb98FD742fA7028e */\n      0xd4a33860578de61dbabdc8bfdb98fd742fa7028e\n        /* \"FundMe/FundMe_flattened.sol\":899:1020  AggregatorV3Interface priceFeed = AggregatorV3Interface(... */\n      swap1\n      pop\n        /* \"FundMe/FundMe_flattened.sol\":1033:1046  int256 answer */\n      0x00\n        /* \"FundMe/FundMe_flattened.sol\":1056:1065  priceFeed */\n      dup2\n        /* \"FundMe/FundMe_flattened.sol\":1056:1081  priceFeed.latestRoundData */\n      0xffffffffffffffffffffffffffffffffffffffff\n      and\n      0xfeaf968c\n        /* \"FundMe/FundMe_flattened.sol\":1056:1083  priceFeed.latestRoundData() */\n      mload(0x40)\n      dup2\n      0xffffffff\n      and\n      0xe0\n      shl\n      dup2\n      mstore\n      0x04\n      add\n      0xa0\n      mload(0x40)\n      dup1\n      dup4\n      sub\n      dup2\n      dup7\n      gas\n      staticcall\n      iszero\n      dup1\n      iszero\n      tag_36\n      jumpi\n      returndatasize\n      0x00\n      dup1\n      returndatacopy\n      revert(0x00, returndatasize)\n    tag_36:\n      pop\n      pop\n      pop\n      pop\n      mload(0x40)\n      returndatasize\n      not(0x1f)\n      0x1f\n      dup3\n      add\n      and\n      dup3\n      add\n      dup1\n      0x40\n      mstore\n      pop\n      dup2\n      add\n      swap1\n      tag_37\n      swap2\n      swap1\n      tag_38\n      jump\t// in\n    tag_37:\n        /* \"FundMe/FundMe_flattened.sol\":1030:1083  (, int256 answer, , , ) = priceFeed.latestRoundData() */\n      pop\n      pop\n      pop\n      swap2\n      pop\n      pop\n        /* \"FundMe/FundMe_flattened.sol\":1117:1121  1e10 */\n      0x02540be400\n        /* \"FundMe/FundMe_flattened.sol\":1108:1114  answer */\n      dup2\n        /* \"FundMe/FundMe_flattened.sol\":1108:1121  answer * 1e10 */\n      tag_39\n      swap2\n      swap1\n      tag_40\n      jump\t// in\n    tag_39:\n        /* \"FundMe/FundMe_flattened.sol\":1093:1122  return uint256(answer * 1e10) */\n      swap3\n      pop\n      pop\n      pop\n        /* \"FundMe/FundMe_flattened.sol\":839:1129  function getPrice() public view returns (uint256) {... */\n      swap1\n      jump\t// out\n        /* \"#utility.yul\":7:84   */\n    tag_41:\n        /* \"#utility.yul\":44:51   */\n      0x00\n        /* \"#utility.yul\":73:78   */\n      dup2\n        /* \"#utility.yul\":62:78   */\n      swap1\n      pop\n        /* \"#utility.yul\":7:84   */\n      swap2\n      swap1\n      pop\n      jump\t// out\n        /* \"#utility.yul\":90:216   */\n    tag_42:\n        /* \"#utility.yul\":185:209   */\n      tag_60\n        /* \"#utility.yul\":203:208   */\n      dup2\n        /* \"#utility.yul\":185:209   */\n      tag_41\n      jump\t// in\n    tag_60:\n        /* \"#utility.yul\":180:183   */\n      dup3\n        /* \"#utility.yul\":173:210   */\n      mstore\n        /* \"#utility.yul\":90:216   */\n      pop\n      pop\n      jump\t// out\n        /* \"#utility.yul\":222:460   */\n    tag_9:\n        /* \"#utility.yul\":323:327   */\n      0x00\n        /* \"#utility.yul\":361:363   */\n      0x20\n        /* \"#utility.yul\":350:359   */\n      dup3\n        /* \"#utility.yul\":346:364   */\n      add\n        /* \"#utility.yul\":338:364   */\n      swap1\n      pop\n        /* \"#utility.yul\":374:453   */\n      tag_62\n        /* \"#utility.yul\":450:451   */\n      0x00\n        /* \"#utility.yul\":439:448   */\n      dup4\n        /* \"#utility.yul\":435:452   */\n      add\n        /* \"#utility.yul\":426:432   */\n      dup5\n        /* \"#utility.yul\":374:453   */\n      tag_42\n      jump\t// in\n    tag_62:\n        /* \"#utility.yul\":222:460   */\n      swap3\n      swap2\n      pop\n      pop\n      jump\t// out\n        /* \"#utility.yul\":547:664   */\n    tag_44:\n        /* \"#utility.yul\":656:657   */\n      0x00\n        /* \"#utility.yul\":653:654   */\n      dup1\n        /* \"#utility.yul\":646:658   */\n      revert\n        /* \"#utility.yul\":793:915   */\n    tag_46:\n        /* \"#utility.yul\":866:890   */\n      tag_67\n        /* \"#utility.yul\":884:889   */\n      dup2\n        /* \"#utility.yul\":866:890   */\n      tag_41\n      jump\t// in\n    tag_67:\n        /* \"#utility.yul\":859:864   */\n      dup2\n        /* \"#utility.yul\":856:891   */\n      eq\n        /* \"#utility.yul\":846:909   */\n      tag_68\n      jumpi\n        /* \"#utility.yul\":905:906   */\n      0x00\n        /* \"#utility.yul\":902:903   */\n      dup1\n        /* \"#utility.yul\":895:907   */\n      revert\n        /* \"#utility.yul\":846:909   */\n    tag_68:\n        /* \"#utility.yul\":793:915   */\n      pop\n      jump\t// out\n        /* \"#utility.yul\":921:1060   */\n    tag_47:\n        /* \"#utility.yul\":967:972   */\n      0x00\n        /* \"#utility.yul\":1005:1011   */\n      dup2\n        /* \"#utility.yul\":992:1012   */\n      calldataload\n        /* \"#utility.yul\":983:1012   */\n      swap1\n      pop\n        /* \"#utility.yul\":1021:1054   */\n      tag_70\n        /* \"#utility.yul\":1048:1053   */\n      dup2\n        /* \"#utility.yul\":1021:1054   */\n      tag_46\n      jump\t// in\n    tag_70:\n        /* \"#utility.yul\":921:1060   */\n      swap3\n      swap2\n      pop\n      pop\n      jump\t// out\n        /* \"#utility.yul\":1066:1395   */\n    tag_12:\n        /* \"#utility.yul\":1125:1131   */\n      0x00\n        /* \"#utility.yul\":1174:1176   */\n      0x20\n        /* \"#utility.yul\":1162:1171   */\n      dup3\n        /* \"#utility.yul\":1153:1160   */\n      dup5\n        /* \"#utility.yul\":1149:1172   */\n      sub\n        /* \"#utility.yul\":1145:1177   */\n      slt\n        /* \"#utility.yul\":1142:1261   */\n      iszero\n      tag_72\n      jumpi\n        /* \"#utility.yul\":1180:1259   */\n      tag_73\n      tag_44\n      jump\t// in\n    tag_73:\n        /* \"#utility.yul\":1142:1261   */\n    tag_72:\n        /* \"#utility.yul\":1300:1301   */\n      0x00\n        /* \"#utility.yul\":1325:1378   */\n      tag_74\n        /* \"#utility.yul\":1370:1377   */\n      dup5\n        /* \"#utility.yul\":1361:1367   */\n      dup3\n        /* \"#utility.yul\":1350:1359   */\n      dup6\n        /* \"#utility.yul\":1346:1368   */\n      add\n        /* \"#utility.yul\":1325:1378   */\n      tag_47\n      jump\t// in\n    tag_74:\n        /* \"#utility.yul\":1315:1378   */\n      swap2\n      pop\n        /* \"#utility.yul\":1271:1388   */\n      pop\n        /* \"#utility.yul\":1066:1395   */\n      swap3\n      swap2\n      pop\n      pop\n      jump\t// out\n        /* \"#utility.yul\":1401:1544   */\n    tag_48:\n        /* \"#utility.yul\":1458:1463   */\n      0x00\n        /* \"#utility.yul\":1489:1495   */\n      dup2\n        /* \"#utility.yul\":1483:1496   */\n      mload\n        /* \"#utility.yul\":1474:1496   */\n      swap1\n      pop\n        /* \"#utility.yul\":1505:1538   */\n      tag_76\n        /* \"#utility.yul\":1532:1537   */\n      dup2\n        /* \"#utility.yul\":1505:1538   */\n      tag_46\n      jump\t// in\n    tag_76:\n        /* \"#utility.yul\":1401:1544   */\n      swap3\n      swap2\n      pop\n      pop\n      jump\t// out\n        /* \"#utility.yul\":1550:1901   */\n    tag_25:\n        /* \"#utility.yul\":1620:1626   */\n      0x00\n        /* \"#utility.yul\":1669:1671   */\n      0x20\n        /* \"#utility.yul\":1657:1666   */\n      dup3\n        /* \"#utility.yul\":1648:1655   */\n      dup5\n        /* \"#utility.yul\":1644:1667   */\n      sub\n        /* \"#utility.yul\":1640:1672   */\n      slt\n        /* \"#utility.yul\":1637:1756   */\n      iszero\n      tag_78\n      jumpi\n        /* \"#utility.yul\":1675:1754   */\n      tag_79\n      tag_44\n      jump\t// in\n    tag_79:\n        /* \"#utility.yul\":1637:1756   */\n    tag_78:\n        /* \"#utility.yul\":1795:1796   */\n      0x00\n        /* \"#utility.yul\":1820:1884   */\n      tag_80\n        /* \"#utility.yul\":1876:1883   */\n      dup5\n        /* \"#utility.yul\":1867:1873   */\n      dup3\n        /* \"#utility.yul\":1856:1865   */\n      dup6\n        /* \"#utility.yul\":1852:1874   */\n      add\n        /* \"#utility.yul\":1820:1884   */\n      tag_48\n      jump\t// in\n    tag_80:\n        /* \"#utility.yul\":1810:1884   */\n      swap2\n      pop\n        /* \"#utility.yul\":1766:1894   */\n      pop\n        /* \"#utility.yul\":1550:1901   */\n      swap3\n      swap2\n      pop\n      pop\n      jump\t// out\n        /* \"#utility.yul\":1907:2087   */\n    tag_49:\n        /* \"#utility.yul\":1955:2032   */\n      0x4e487b7100000000000000000000000000000000000000000000000000000000\n        /* \"#utility.yul\":1952:1953   */\n      0x00\n        /* \"#utility.yul\":1945:2033   */\n      mstore\n        /* \"#utility.yul\":2052:2056   */\n      0x11\n        /* \"#utility.yul\":2049:2050   */\n      0x04\n        /* \"#utility.yul\":2042:2057   */\n      mstore\n        /* \"#utility.yul\":2076:2080   */\n      0x24\n        /* \"#utility.yul\":2073:2074   */\n      0x00\n        /* \"#utility.yul\":2066:2081   */\n      revert\n        /* \"#utility.yul\":2093:2503   */\n    tag_29:\n        /* \"#utility.yul\":2133:2140   */\n      0x00\n        /* \"#utility.yul\":2156:2176   */\n      tag_83\n        /* \"#utility.yul\":2174:2175   */\n      dup3\n        /* \"#utility.yul\":2156:2176   */\n      tag_41\n      jump\t// in\n    tag_83:\n        /* \"#utility.yul\":2151:2176   */\n      swap2\n      pop\n        /* \"#utility.yul\":2190:2210   */\n      tag_84\n        /* \"#utility.yul\":2208:2209   */\n      dup4\n        /* \"#utility.yul\":2190:2210   */\n      tag_41\n      jump\t// in\n    tag_84:\n        /* \"#utility.yul\":2185:2210   */\n      swap3\n      pop\n        /* \"#utility.yul\":2245:2246   */\n      dup3\n        /* \"#utility.yul\":2242:2243   */\n      dup3\n        /* \"#utility.yul\":2238:2247   */\n      mul\n        /* \"#utility.yul\":2267:2297   */\n      tag_85\n        /* \"#utility.yul\":2285:2296   */\n      dup2\n        /* \"#utility.yul\":2267:2297   */\n      tag_41\n      jump\t// in\n    tag_85:\n        /* \"#utility.yul\":2256:2297   */\n      swap2\n      pop\n        /* \"#utility.yul\":2446:2447   */\n      dup3\n        /* \"#utility.yul\":2437:2444   */\n      dup3\n        /* \"#utility.yul\":2433:2448   */\n      div\n        /* \"#utility.yul\":2430:2431   */\n      dup5\n        /* \"#utility.yul\":2427:2449   */\n      eq\n        /* \"#utility.yul\":2407:2408   */\n      dup4\n        /* \"#utility.yul\":2400:2409   */\n      iszero\n        /* \"#utility.yul\":2380:2463   */\n      or\n        /* \"#utility.yul\":2357:2496   */\n      tag_86\n      jumpi\n        /* \"#utility.yul\":2476:2494   */\n      tag_87\n      tag_49\n      jump\t// in\n    tag_87:\n        /* \"#utility.yul\":2357:2496   */\n    tag_86:\n        /* \"#utility.yul\":2141:2503   */\n      pop\n        /* \"#utility.yul\":2093:2503   */\n      swap3\n      swap2\n      pop\n      pop\n      jump\t// out\n        /* \"#utility.yul\":2509:2689   */\n    tag_50:\n        /* \"#utility.yul\":2557:2634   */\n      0x4e487b7100000000000000000000000000000000000000000000000000000000\n        /* \"#utility.yul\":2554:2555   */\n      0x00\n        /* \"#utility.yul\":2547:2635   */\n      mstore\n        /* \"#utility.yul\":2654:2658   */\n      0x12\n        /* \"#utility.yul\":2651:2652   */\n      0x04\n        /* \"#utility.yul\":2644:2659   */\n      mstore\n        /* \"#utility.yul\":2678:2682   */\n      0x24\n        /* \"#utility.yul\":2675:2676   */\n      0x00\n        /* \"#utility.yul\":2668:2683   */\n      revert\n        /* \"#utility.yul\":2695:2880   */\n    tag_31:\n        /* \"#utility.yul\":2735:2736   */\n      0x00\n        /* \"#utility.yul\":2752:2772   */\n      tag_90\n        /* \"#utility.yul\":2770:2771   */\n      dup3\n        /* \"#utility.yul\":2752:2772   */\n      tag_41\n      jump\t// in\n    tag_90:\n        /* \"#utility.yul\":2747:2772   */\n      swap2\n      pop\n        /* \"#utility.yul\":2786:2806   */\n      tag_91\n        /* \"#utility.yul\":2804:2805   */\n      dup4\n        /* \"#utility.yul\":2786:2806   */\n      tag_41\n      jump\t// in\n    tag_91:\n        /* \"#utility.yul\":2781:2806   */\n      swap3\n      pop\n        /* \"#utility.yul\":2825:2826   */\n      dup3\n        /* \"#utility.yul\":2815:2850   */\n      tag_92\n      jumpi\n        /* \"#utility.yul\":2830:2848   */\n      tag_93\n      tag_50\n      jump\t// in\n    tag_93:\n        /* \"#utility.yul\":2815:2850   */\n    tag_92:\n        /* \"#utility.yul\":2872:2873   */\n      dup3\n        /* \"#utility.yul\":2869:2870   */\n      dup3\n        /* \"#utility.yul\":2865:2874   */\n      div\n        /* \"#utility.yul\":2860:2874   */\n      swap1\n      pop\n        /* \"#utility.yul\":2695:2880   */\n      swap3\n      swap2\n      pop\n      pop\n      jump\t// out\n        /* \"#utility.yul\":2886:2991   */\n    tag_51:\n        /* \"#utility.yul\":2922:2929   */\n      0x00\n        /* \"#utility.yul\":2962:2984   */\n      0xffffffffffffffffffff\n        /* \"#utility.yul\":2955:2960   */\n      dup3\n        /* \"#utility.yul\":2951:2985   */\n      and\n        /* \"#utility.yul\":2940:2985   */\n      swap1\n      pop\n        /* \"#utility.yul\":2886:2991   */\n      swap2\n      swap1\n      pop\n      jump\t// out\n        /* \"#utility.yul\":2997:3117   */\n    tag_52:\n        /* \"#utility.yul\":3069:3092   */\n      tag_96\n        /* \"#utility.yul\":3086:3091   */\n      dup2\n        /* \"#utility.yul\":3069:3092   */\n      tag_51\n      jump\t// in\n    tag_96:\n        /* \"#utility.yul\":3062:3067   */\n      dup2\n        /* \"#utility.yul\":3059:3093   */\n      eq\n        /* \"#utility.yul\":3049:3111   */\n      tag_97\n      jumpi\n        /* \"#utility.yul\":3107:3108   */\n      0x00\n        /* \"#utility.yul\":3104:3105   */\n      dup1\n        /* \"#utility.yul\":3097:3109   */\n      revert\n        /* \"#utility.yul\":3049:3111   */\n    tag_97:\n        /* \"#utility.yul\":2997:3117   */\n      pop\n      jump\t// out\n        /* \"#utility.yul\":3123:3264   */\n    tag_53:\n        /* \"#utility.yul\":3179:3184   */\n      0x00\n        /* \"#utility.yul\":3210:3216   */\n      dup2\n        /* \"#utility.yul\":3204:3217   */\n      mload\n        /* \"#utility.yul\":3195:3217   */\n      swap1\n      pop\n        /* \"#utility.yul\":3226:3258   */\n      tag_99\n        /* \"#utility.yul\":3252:3257   */\n      dup2\n        /* \"#utility.yul\":3226:3258   */\n      tag_52\n      jump\t// in\n    tag_99:\n        /* \"#utility.yul\":3123:3264   */\n      swap3\n      swap2\n      pop\n      pop\n      jump\t// out\n        /* \"#utility.yul\":3270:3346   */\n    tag_54:\n        /* \"#utility.yul\":3306:3313   */\n      0x00\n        /* \"#utility.yul\":3335:3340   */\n      dup2\n        /* \"#utility.yul\":3324:3340   */\n      swap1\n      pop\n        /* \"#utility.yul\":3270:3346   */\n      swap2\n      swap1\n      pop\n      jump\t// out\n        /* \"#utility.yul\":3352:3472   */\n    tag_55:\n        /* \"#utility.yul\":3424:3447   */\n      tag_102\n        /* \"#utility.yul\":3441:3446   */\n      dup2\n        /* \"#utility.yul\":3424:3447   */\n      tag_54\n      jump\t// in\n    tag_102:\n        /* \"#utility.yul\":3417:3422   */\n      dup2\n        /* \"#utility.yul\":3414:3448   */\n      eq\n        /* \"#utility.yul\":3404:3466   */\n      tag_103\n      jumpi\n        /* \"#utility.yul\":3462:3463   */\n      0x00\n        /* \"#utility.yul\":3459:3460   */\n      dup1\n        /* \"#utility.yul\":3452:3464   */\n      revert\n        /* \"#utility.yul\":3404:3466   */\n    tag_103:\n        /* \"#utility.yul\":3352:3472   */\n      pop\n      jump\t// out\n        /* \"#utility.yul\":3478:3619   */\n    tag_56:\n        /* \"#utility.yul\":3534:3539   */\n      0x00\n        /* \"#utility.yul\":3565:3571   */\n      dup2\n        /* \"#utility.yul\":3559:3572   */\n      mload\n        /* \"#utility.yul\":3550:3572   */\n      swap1\n      pop\n        /* \"#utility.yul\":3581:3613   */\n      tag_105\n        /* \"#utility.yul\":3607:3612   */\n      dup2\n        /* \"#utility.yul\":3581:3613   */\n      tag_55\n      jump\t// in\n    tag_105:\n        /* \"#utility.yul\":3478:3619   */\n      swap3\n      swap2\n      pop\n      pop\n      jump\t// out\n        /* \"#utility.yul\":3625:4596   */\n    tag_38:\n        /* \"#utility.yul\":3728:3734   */\n      0x00\n        /* \"#utility.yul\":3736:3742   */\n      dup1\n        /* \"#utility.yul\":3744:3750   */\n      0x00\n        /* \"#utility.yul\":3752:3758   */\n      dup1\n        /* \"#utility.yul\":3760:3766   */\n      0x00\n        /* \"#utility.yul\":3809:3812   */\n      0xa0\n        /* \"#utility.yul\":3797:3806   */\n      dup7\n        /* \"#utility.yul\":3788:3795   */\n      dup9\n        /* \"#utility.yul\":3784:3807   */\n      sub\n        /* \"#utility.yul\":3780:3813   */\n      slt\n        /* \"#utility.yul\":3777:3897   */\n      iszero\n      tag_107\n      jumpi\n        /* \"#utility.yul\":3816:3895   */\n      tag_108\n      tag_44\n      jump\t// in\n    tag_108:\n        /* \"#utility.yul\":3777:3897   */\n    tag_107:\n        /* \"#utility.yul\":3936:3937   */\n      0x00\n        /* \"#utility.yul\":3961:4024   */\n      tag_109\n        /* \"#utility.yul\":4016:4023   */\n      dup9\n        /* \"#utility.yul\":4007:4013   */\n      dup3\n        /* \"#utility.yul\":3996:4005   */\n      dup10\n        /* \"#utility.yul\":3992:4014   */\n      add\n        /* \"#utility.yul\":3961:4024   */\n      tag_53\n      jump\t// in\n    tag_109:\n        /* \"#utility.yul\":3951:4024   */\n      swap6\n      pop\n        /* \"#utility.yul\":3907:4034   */\n      pop\n        /* \"#utility.yul\":4073:4075   */\n      0x20\n        /* \"#utility.yul\":4099:4162   */\n      tag_110\n        /* \"#utility.yul\":4154:4161   */\n      dup9\n        /* \"#utility.yul\":4145:4151   */\n      dup3\n        /* \"#utility.yul\":4134:4143   */\n      dup10\n        /* \"#utility.yul\":4130:4152   */\n      add\n        /* \"#utility.yul\":4099:4162   */\n      tag_56\n      jump\t// in\n    tag_110:\n        /* \"#utility.yul\":4089:4162   */\n      swap5\n      pop\n        /* \"#utility.yul\":4044:4172   */\n      pop\n        /* \"#utility.yul\":4211:4213   */\n      0x40\n        /* \"#utility.yul\":4237:4301   */\n      tag_111\n        /* \"#utility.yul\":4293:4300   */\n      dup9\n        /* \"#utility.yul\":4284:4290   */\n      dup3\n        /* \"#utility.yul\":4273:4282   */\n      dup10\n        /* \"#utility.yul\":4269:4291   */\n      add\n        /* \"#utility.yul\":4237:4301   */\n      tag_48\n      jump\t// in\n    tag_111:\n        /* \"#utility.yul\":4227:4301   */\n      swap4\n      pop\n        /* \"#utility.yul\":4182:4311   */\n      pop\n        /* \"#utility.yul\":4350:4352   */\n      0x60\n        /* \"#utility.yul\":4376:4440   */\n      tag_112\n        /* \"#utility.yul\":4432:4439   */\n      dup9\n        /* \"#utility.yul\":4423:4429   */\n      dup3\n        /* \"#utility.yul\":4412:4421   */\n      dup10\n        /* \"#utility.yul\":4408:4430   */\n      add\n        /* \"#utility.yul\":4376:4440   */\n      tag_48\n      jump\t// in\n    tag_112:\n        /* \"#utility.yul\":4366:4440   */\n      swap3\n      pop\n        /* \"#utility.yul\":4321:4450   */\n      pop\n        /* \"#utility.yul\":4489:4492   */\n      0x80\n        /* \"#utility.yul\":4516:4579   */\n      tag_113\n        /* \"#utility.yul\":4571:4578   */\n      dup9\n        /* \"#utility.yul\":4562:4568   */\n      dup3\n        /* \"#utility.yul\":4551:4560   */\n      dup10\n        /* \"#utility.yul\":4547:4569   */\n      add\n        /* \"#utility.yul\":4516:4579   */\n      tag_53\n      jump\t// in\n    tag_113:\n        /* \"#utility.yul\":4506:4579   */\n      swap2\n      pop\n        /* \"#utility.yul\":4460:4589   */\n      pop\n        /* \"#utility.yul\":3625:4596   */\n      swap3\n      swap6\n      pop\n      swap3\n      swap6\n      swap1\n      swap4\n      pop\n      jump\t// out\n        /* \"#utility.yul\":4602:5158   */\n    tag_40:\n        /* \"#utility.yul\":4641:4648   */\n      0x00\n        /* \"#utility.yul\":4664:4683   */\n      tag_115\n        /* \"#utility.yul\":4681:4682   */\n      dup3\n        /* \"#utility.yul\":4664:4683   */\n      tag_54\n      jump\t// in\n    tag_115:\n        /* \"#utility.yul\":4659:4683   */\n      swap2\n      pop\n        /* \"#utility.yul\":4697:4716   */\n      tag_116\n        /* \"#utility.yul\":4714:4715   */\n      dup4\n        /* \"#utility.yul\":4697:4716   */\n      tag_54\n      jump\t// in\n    tag_116:\n        /* \"#utility.yul\":4692:4716   */\n      swap3\n      pop\n        /* \"#utility.yul\":4751:4752   */\n      dup3\n        /* \"#utility.yul\":4748:4749   */\n      dup3\n        /* \"#utility.yul\":4744:4753   */\n      mul\n        /* \"#utility.yul\":4773:4802   */\n      tag_117\n        /* \"#utility.yul\":4790:4801   */\n      dup2\n        /* \"#utility.yul\":4773:4802   */\n      tag_54\n      jump\t// in\n    tag_117:\n        /* \"#utility.yul\":4762:4802   */\n      swap2\n      pop\n        /* \"#utility.yul\":4860:4926   */\n      0x8000000000000000000000000000000000000000000000000000000000000000\n        /* \"#utility.yul\":4857:4858   */\n      dup5\n        /* \"#utility.yul\":4854:4927   */\n      eq\n        /* \"#utility.yul\":4850:4851   */\n      0x00\n        /* \"#utility.yul\":4847:4848   */\n      dup5\n        /* \"#utility.yul\":4843:4852   */\n      slt\n        /* \"#utility.yul\":4839:4928   */\n      and\n        /* \"#utility.yul\":4836:4951   */\n      iszero\n      tag_118\n      jumpi\n        /* \"#utility.yul\":4931:4949   */\n      tag_119\n      tag_49\n      jump\t// in\n    tag_119:\n        /* \"#utility.yul\":4836:4951   */\n    tag_118:\n        /* \"#utility.yul\":5101:5102   */\n      dup3\n        /* \"#utility.yul\":5092:5099   */\n      dup3\n        /* \"#utility.yul\":5087:5103   */\n      sdiv\n        /* \"#utility.yul\":5084:5085   */\n      dup5\n        /* \"#utility.yul\":5081:5104   */\n      eq\n        /* \"#utility.yul\":5061:5062   */\n      dup4\n        /* \"#utility.yul\":5054:5063   */\n      iszero\n        /* \"#utility.yul\":5034:5118   */\n      or\n        /* \"#utility.yul\":5011:5151   */\n      tag_120\n      jumpi\n        /* \"#utility.yul\":5131:5149   */\n      tag_121\n      tag_49\n      jump\t// in\n    tag_121:\n        /* \"#utility.yul\":5011:5151   */\n    tag_120:\n        /* \"#utility.yul\":4649:5158   */\n      pop\n        /* \"#utility.yul\":4602:5158   */\n      swap3\n      swap2\n      pop\n      pop\n      jump\t// out\n\n    auxdata: 0xa2646970667358221220879f79076875cdbb4575ef3dfa6d6cd51f721da5040ba3c119ff4207b346579d64736f6c63430008120033\n}\n",
				"bytecode": {
					"linkReferences": {},
					"object": "6105ae610053600b82828239805160001a607314610046577f4e487b7100000000000000000000000000000000000000000000000000000000600052600060045260246000fd5b30600052607381538281f3fe73000000000000000000000000000000000000000030146080604052600436106100565760003560e01c80630d8e6e2c1461005b5780636e5b6b2814610079578063838a6059146100a957806398d5fdca146100c7575b600080fd5b6100636100e5565b6040516100709190610281565b60405180910390f35b610093600480360381019061008e91906102cd565b61016f565b6040516100a09190610281565b60405180910390f35b6100b16101a9565b6040516100be9190610281565b60405180910390f35b6100cf6101bf565b6040516100dc9190610281565b60405180910390f35b600073d4a33860578de61dbabdc8bfdb98fd742fa7028e73ffffffffffffffffffffffffffffffffffffffff166354fd4d506040518163ffffffff1660e01b8152600401602060405180830381865afa158015610146573d6000803e3d6000fd5b505050506040513d601f19601f8201168201806040525081019061016a919061030f565b905090565b60008061017a6101bf565b90506000670de0b6b3a76400008483610193919061036b565b61019d91906103dc565b90508092505050919050565b6000806101b6600161016f565b90508091505090565b60008073d4a33860578de61dbabdc8bfdb98fd742fa7028e905060008173ffffffffffffffffffffffffffffffffffffffff1663feaf968c6040518163ffffffff1660e01b815260040160a060405180830381865afa158015610226573d6000803e3d6000fd5b505050506040513d601f19601f8201168201806040525081019061024a9190610485565b5050509150506402540be400816102619190610500565b9250505090565b6000819050919050565b61027b81610268565b82525050565b60006020820190506102966000830184610272565b92915050565b600080fd5b6102aa81610268565b81146102b557600080fd5b50565b6000813590506102c7816102a1565b92915050565b6000602082840312156102e3576102e261029c565b5b60006102f1848285016102b8565b91505092915050565b600081519050610309816102a1565b92915050565b6000602082840312156103255761032461029c565b5b6000610333848285016102fa565b91505092915050565b7f4e487b7100000000000000000000000000000000000000000000000000000000600052601160045260246000fd5b600061037682610268565b915061038183610268565b925082820261038f81610268565b915082820484148315176103a6576103a561033c565b5b5092915050565b7f4e487b7100000000000000000000000000000000000000000000000000000000600052601260045260246000fd5b60006103e782610268565b91506103f283610268565b925082610402576104016103ad565b5b828204905092915050565b600069ffffffffffffffffffff82169050919050565b61042c8161040d565b811461043757600080fd5b50565b60008151905061044981610423565b92915050565b6000819050919050565b6104628161044f565b811461046d57600080fd5b50565b60008151905061047f81610459565b92915050565b600080600080600060a086880312156104a1576104a061029c565b5b60006104af8882890161043a565b95505060206104c088828901610470565b94505060406104d1888289016102fa565b93505060606104e2888289016102fa565b92505060806104f38882890161043a565b9150509295509295909350565b600061050b8261044f565b91506105168361044f565b92508282026105248161044f565b91507f8000000000000000000000000000000000000000000000000000000000000000841460008412161561055c5761055b61033c565b5b82820584148315176105715761057061033c565b5b509291505056fea2646970667358221220879f79076875cdbb4575ef3dfa6d6cd51f721da5040ba3c119ff4207b346579d64736f6c63430008120033",
					"opcodes": "PUSH2 0x5AE PUSH2 0x53 PUSH1 0xB DUP3 DUP3 DUP3 CODECOPY DUP1 MLOAD PUSH1 0x0 BYTE PUSH1 0x73 EQ PUSH2 0x46 JUMPI PUSH32 0x4E487B7100000000000000000000000000000000000000000000000000000000 PUSH1 0x0 MSTORE PUSH1 0x0 PUSH1 0x4 MSTORE PUSH1 0x24 PUSH1 0x0 REVERT JUMPDEST ADDRESS PUSH1 0x0 MSTORE PUSH1 0x73 DUP2 MSTORE8 DUP3 DUP2 RETURN INVALID PUSH20 0x0 ADDRESS EQ PUSH1 0x80 PUSH1 0x40 MSTORE PUSH1 0x4 CALLDATASIZE LT PUSH2 0x56 JUMPI PUSH1 0x0 CALLDATALOAD PUSH1 0xE0 SHR DUP1 PUSH4 0xD8E6E2C EQ PUSH2 0x5B JUMPI DUP1 PUSH4 0x6E5B6B28 EQ PUSH2 0x79 JUMPI DUP1 PUSH4 0x838A6059 EQ PUSH2 0xA9 JUMPI DUP1 PUSH4 0x98D5FDCA EQ PUSH2 0xC7 JUMPI JUMPDEST PUSH1 0x0 DUP1 REVERT JUMPDEST PUSH2 0x63 PUSH2 0xE5 JUMP JUMPDEST PUSH1 0x40 MLOAD PUSH2 0x70 SWAP2 SWAP1 PUSH2 0x281 JUMP JUMPDEST PUSH1 0x40 MLOAD DUP1 SWAP2 SUB SWAP1 RETURN JUMPDEST PUSH2 0x93 PUSH1 0x4 DUP1 CALLDATASIZE SUB DUP2 ADD SWAP1 PUSH2 0x8E SWAP2 SWAP1 PUSH2 0x2CD JUMP JUMPDEST PUSH2 0x16F JUMP JUMPDEST PUSH1 0x40 MLOAD PUSH2 0xA0 SWAP2 SWAP1 PUSH2 0x281 JUMP JUMPDEST PUSH1 0x40 MLOAD DUP1 SWAP2 SUB SWAP1 RETURN JUMPDEST PUSH2 0xB1 PUSH2 0x1A9 JUMP JUMPDEST PUSH1 0x40 MLOAD PUSH2 0xBE SWAP2 SWAP1 PUSH2 0x281 JUMP JUMPDEST PUSH1 0x40 MLOAD DUP1 SWAP2 SUB SWAP1 RETURN JUMPDEST PUSH2 0xCF PUSH2 0x1BF JUMP JUMPDEST PUSH1 0x40 MLOAD PUSH2 0xDC SWAP2 SWAP1 PUSH2 0x281 JUMP JUMPDEST PUSH1 0x40 MLOAD DUP1 SWAP2 SUB SWAP1 RETURN JUMPDEST PUSH1 0x0 PUSH20 0xD4A33860578DE61DBABDC8BFDB98FD742FA7028E PUSH20 0xFFFFFFFFFFFFFFFFFFFFFFFFFFFFFFFFFFFFFFFF AND PUSH4 0x54FD4D50 PUSH1 0x40 MLOAD DUP2 PUSH4 0xFFFFFFFF AND PUSH1 0xE0 SHL DUP2 MSTORE PUSH1 0x4 ADD PUSH1 0x20 PUSH1 0x40 MLOAD DUP1 DUP4 SUB DUP2 DUP7 GAS STATICCALL ISZERO DUP1 ISZERO PUSH2 0x146 JUMPI RETURNDATASIZE PUSH1 0x0 DUP1 RETURNDATACOPY RETURNDATASIZE PUSH1 0x0 REVERT JUMPDEST POP POP POP POP PUSH1 0x40 MLOAD RETURNDATASIZE PUSH1 0x1F NOT PUSH1 0x1F DUP3 ADD AND DUP3 ADD DUP1 PUSH1 0x40 MSTORE POP DUP2 ADD SWAP1 PUSH2 0x16A SWAP2 SWAP1 PUSH2 0x30F JUMP JUMPDEST SWAP1 POP SWAP1 JUMP JUMPDEST PUSH1 0x0 DUP1 PUSH2 0x17A PUSH2 0x1BF JUMP JUMPDEST SWAP1 POP PUSH1 0x0 PUSH8 0xDE0B6B3A7640000 DUP5 DUP4 PUSH2 0x193 SWAP2 SWAP1 PUSH2 0x36B JUMP JUMPDEST PUSH2 0x19D SWAP2 SWAP1 PUSH2 0x3DC JUMP JUMPDEST SWAP1 POP DUP1 SWAP3 POP POP POP SWAP2 SWAP1 POP JUMP JUMPDEST PUSH1 0x0 DUP1 PUSH2 0x1B6 PUSH1 0x1 PUSH2 0x16F JUMP JUMPDEST SWAP1 POP DUP1 SWAP2 POP POP SWAP1 JUMP JUMPDEST PUSH1 0x0 DUP1 PUSH20 0xD4A33860578DE61DBABDC8BFDB98FD742FA7028E SWAP1 POP PUSH1 0x0 DUP2 PUSH20 0xFFFFFFFFFFFFFFFFFFFFFFFFFFFFFFFFFFFFFFFF AND PUSH4 0xFEAF968C PUSH1 0x40 MLOAD DUP2 PUSH4 0xFFFFFFFF AND PUSH1 0xE0 SHL DUP2 MSTORE PUSH1 0x4 ADD PUSH1 0xA0 PUSH1 0x40 MLOAD DUP1 DUP4 SUB DUP2 DUP7 GAS STATICCALL ISZERO DUP1 ISZERO PUSH2 0x226 JUMPI RETURNDATASIZE PUSH1 0x0 DUP1 RETURNDATACOPY RETURNDATASIZE PUSH1 0x0 REVERT JUMPDEST POP POP POP POP PUSH1 0x40 MLOAD RETURNDATASIZE PUSH1 0x1F NOT PUSH1 0x1F DUP3 ADD AND DUP3 ADD DUP1 PUSH1 0x40 MSTORE POP DUP2 ADD SWAP1 PUSH2 0x24A SWAP2 SWAP1 PUSH2 0x485 JUMP JUMPDEST POP POP POP SWAP2 POP POP PUSH5 0x2540BE400 DUP2 PUSH2 0x261 SWAP2 SWAP1 PUSH2 0x500 JUMP JUMPDEST SWAP3 POP POP POP SWAP1 JUMP JUMPDEST PUSH1 0x0 DUP2 SWAP1 POP SWAP2 SWAP1 POP JUMP JUMPDEST PUSH2 0x27B DUP2 PUSH2 0x268 JUMP JUMPDEST DUP3 MSTORE POP POP JUMP JUMPDEST PUSH1 0x0 PUSH1 0x20 DUP3 ADD SWAP1 POP PUSH2 0x296 PUSH1 0x0 DUP4 ADD DUP5 PUSH2 0x272 JUMP JUMPDEST SWAP3 SWAP2 POP POP JUMP JUMPDEST PUSH1 0x0 DUP1 REVERT JUMPDEST PUSH2 0x2AA DUP2 PUSH2 0x268 JUMP JUMPDEST DUP2 EQ PUSH2 0x2B5 JUMPI PUSH1 0x0 DUP1 REVERT JUMPDEST POP JUMP JUMPDEST PUSH1 0x0 DUP2 CALLDATALOAD SWAP1 POP PUSH2 0x2C7 DUP2 PUSH2 0x2A1 JUMP JUMPDEST SWAP3 SWAP2 POP POP JUMP JUMPDEST PUSH1 0x0 PUSH1 0x20 DUP3 DUP5 SUB SLT ISZERO PUSH2 0x2E3 JUMPI PUSH2 0x2E2 PUSH2 0x29C JUMP JUMPDEST JUMPDEST PUSH1 0x0 PUSH2 0x2F1 DUP5 DUP3 DUP6 ADD PUSH2 0x2B8 JUMP JUMPDEST SWAP2 POP POP SWAP3 SWAP2 POP POP JUMP JUMPDEST PUSH1 0x0 DUP2 MLOAD SWAP1 POP PUSH2 0x309 DUP2 PUSH2 0x2A1 JUMP JUMPDEST SWAP3 SWAP2 POP POP JUMP JUMPDEST PUSH1 0x0 PUSH1 0x20 DUP3 DUP5 SUB SLT ISZERO PUSH2 0x325 JUMPI PUSH2 0x324 PUSH2 0x29C JUMP JUMPDEST JUMPDEST PUSH1 0x0 PUSH2 0x333 DUP5 DUP3 DUP6 ADD PUSH2 0x2FA JUMP JUMPDEST SWAP2 POP POP SWAP3 SWAP2 POP POP JUMP JUMPDEST PUSH32 0x4E487B7100000000000000000000000000000000000000000000000000000000 PUSH1 0x0 MSTORE PUSH1 0x11 PUSH1 0x4 MSTORE PUSH1 0x24 PUSH1 0x0 REVERT JUMPDEST PUSH1 0x0 PUSH2 0x376 DUP3 PUSH2 0x268 JUMP JUMPDEST SWAP2 POP PUSH2 0x381 DUP4 PUSH2 0x268 JUMP JUMPDEST SWAP3 POP DUP3 DUP3 MUL PUSH2 0x38F DUP2 PUSH2 0x268 JUMP JUMPDEST SWAP2 POP DUP3 DUP3 DIV DUP5 EQ DUP4 ISZERO OR PUSH2 0x3A6 JUMPI PUSH2 0x3A5 PUSH2 0x33C JUMP JUMPDEST JUMPDEST POP SWAP3 SWAP2 POP POP JUMP JUMPDEST PUSH32 0x4E487B7100000000000000000000000000000000000000000000000000000000 PUSH1 0x0 MSTORE PUSH1 0x12 PUSH1 0x4 MSTORE PUSH1 0x24 PUSH1 0x0 REVERT JUMPDEST PUSH1 0x0 PUSH2 0x3E7 DUP3 PUSH2 0x268 JUMP JUMPDEST SWAP2 POP PUSH2 0x3F2 DUP4 PUSH2 0x268 JUMP JUMPDEST SWAP3 POP DUP3 PUSH2 0x402 JUMPI PUSH2 0x401 PUSH2 0x3AD JUMP JUMPDEST JUMPDEST DUP3 DUP3 DIV SWAP1 POP SWAP3 SWAP2 POP POP JUMP JUMPDEST PUSH1 0x0 PUSH10 0xFFFFFFFFFFFFFFFFFFFF DUP3 AND SWAP1 POP SWAP2 SWAP1 POP JUMP JUMPDEST PUSH2 0x42C DUP2 PUSH2 0x40D JUMP JUMPDEST DUP2 EQ PUSH2 0x437 JUMPI PUSH1 0x0 DUP1 REVERT JUMPDEST POP JUMP JUMPDEST PUSH1 0x0 DUP2 MLOAD SWAP1 POP PUSH2 0x449 DUP2 PUSH2 0x423 JUMP JUMPDEST SWAP3 SWAP2 POP POP JUMP JUMPDEST PUSH1 0x0 DUP2 SWAP1 POP SWAP2 SWAP1 POP JUMP JUMPDEST PUSH2 0x462 DUP2 PUSH2 0x44F JUMP JUMPDEST DUP2 EQ PUSH2 0x46D JUMPI PUSH1 0x0 DUP1 REVERT JUMPDEST POP JUMP JUMPDEST PUSH1 0x0 DUP2 MLOAD SWAP1 POP PUSH2 0x47F DUP2 PUSH2 0x459 JUMP JUMPDEST SWAP3 SWAP2 POP POP JUMP JUMPDEST PUSH1 0x0 DUP1 PUSH1 0x0 DUP1 PUSH1 0x0 PUSH1 0xA0 DUP7 DUP9 SUB SLT ISZERO PUSH2 0x4A1 JUMPI PUSH2 0x4A0 PUSH2 0x29C JUMP JUMPDEST JUMPDEST PUSH1 0x0 PUSH2 0x4AF DUP9 DUP3 DUP10 ADD PUSH2 0x43A JUMP JUMPDEST SWAP6 POP POP PUSH1 0x20 PUSH2 0x4C0 DUP9 DUP3 DUP10 ADD PUSH2 0x470 JUMP JUMPDEST SWAP5 POP POP PUSH1 0x40 PUSH2 0x4D1 DUP9 DUP3 DUP10 ADD PUSH2 0x2FA JUMP JUMPDEST SWAP4 POP POP PUSH1 0x60 PUSH2 0x4E2 DUP9 DUP3 DUP10 ADD PUSH2 0x2FA JUMP JUMPDEST SWAP3 POP POP PUSH1 0x80 PUSH2 0x4F3 DUP9 DUP3 DUP10 ADD PUSH2 0x43A JUMP JUMPDEST SWAP2 POP POP SWAP3 SWAP6 POP SWAP3 SWAP6 SWAP1 SWAP4 POP JUMP JUMPDEST PUSH1 0x0 PUSH2 0x50B DUP3 PUSH2 0x44F JUMP JUMPDEST SWAP2 POP PUSH2 0x516 DUP4 PUSH2 0x44F JUMP JUMPDEST SWAP3 POP DUP3 DUP3 MUL PUSH2 0x524 DUP2 PUSH2 0x44F JUMP JUMPDEST SWAP2 POP PUSH32 0x8000000000000000000000000000000000000000000000000000000000000000 DUP5 EQ PUSH1 0x0 DUP5 SLT AND ISZERO PUSH2 0x55C JUMPI PUSH2 0x55B PUSH2 0x33C JUMP JUMPDEST JUMPDEST DUP3 DUP3 SDIV DUP5 EQ DUP4 ISZERO OR PUSH2 0x571 JUMPI PUSH2 0x570 PUSH2 0x33C JUMP JUMPDEST JUMPDEST POP SWAP3 SWAP2 POP POP JUMP INVALID LOG2 PUSH5 0x6970667358 0x22 SLT KECCAK256 DUP8 SWAP16 PUSH26 0x76875CDBB4575EF3DFA6D6CD51F721DA5040BA3C119FF4207B3 CHAINID JUMPI SWAP14 PUSH5 0x736F6C6343 STOP ADDMOD SLT STOP CALLER "
				},
				"gasEstimates": {
					"creation": {
						"codeDepositCost": "290800",
						"executionCost": "356",
						"totalCost": "291156"
					},
					"external": {
						"getConversionRate(uint256)": "infinite",
						"getPrice()": "infinite",
						"getPriceInUsd()": "infinite",
						"getVersion()": "infinite"
					}
				},
				"methodIdentifiers": {
					"getConversionRate(uint256)": "6e5b6b28",
					"getPrice()": "98d5fdca",
					"getPriceInUsd()": "838a6059",
					"getVersion()": "0d8e6e2c"
				}
			},
			"storageLayout": {
				"storage": [],
				"types": null
			},
			"userdoc": {
				"kind": "user",
				"methods": {},
				"version": 1
			}
		}
	}
}